:020000040000FA
:1008000074EF2AF0003F3B494F54657374207630F3
:090810002E302E31000D0A00000B
:10536000C5EC2CF023EC2DF01200000E956E000E13
:105370008C6E1200036E03C001F0010E026E012A52
:1053800002D0D8900236012EFCD702508C121200A7
:105390001CC010F01DC011F01EC012F01FC013F091
:1053A000000E156E160E146E52EC2EF01200036EE7
:1053B00003C001F0010E026E012A02D0D89002361D
:1053C000012EFCD70250FF0A8C1612000150030276
:1053D000F3CF05F0F4CF06F001500402F350062697
:1053E00002500302F350062605C001F006C002F089
:1053F000120001C007F002C008F008D007C0D9FFB2
:1054000008C0DAFF03C0DFFF074A082A0506D8A054
:1054100006060528F3E10628D8B41200EFD7000EDF
:10542000056E000E046E0BD0100E036E940EE82E67
:10543000FED7032EFCD700F000F0044A052A0150E5
:10544000045C02500558D8B01200EED7B5EC29F034
:10545000000E0E6EE10E0F6E000E106E000E116E3D
:1054600045EC2FF00009D8A402D0000E1200010E66
:10547000016E000EE7EC2BF0010E120001C007F0E8
:1054800002C008F020EE6EF00750D9260850DA224C
:1054900010EE70F00750E1260850E222DE50E618C8
:1054A00004E1DE50E618D8B402D0010E1200000E5E
:1054B000120007C009F008C00AF020EE6EF0095093
:1054C000D9260A50DA22DECF01F0DDCF02F0000E3D
:1054D000046E160E036EE6EC29F001500924076EE7
:1054E00002500A20086E120002EE00F0810EEE6AF1
:1054F000E806FDE101EE00F0810EEE6AE806FDE14E
:1055000000EE60F0360EEE6AE806FDE100EE50F0C7
:105510000D0EEE6AE806FDE1000EF86E0001C7EF21
:105520002EF003500410D8B418D0010E056E04D02C
:10553000D89003360436052A04AEFAD70350015C2E
:1055400004500258D8A004D00350015E0450025AFF
:10555000D89004320332052EF1D701C001F002C009
:1055600002F0120001C005F002C006F002D0054AA8
:10557000062A05C0F6FF06C0F7FFF86A070EF764B3
:1055800003D00800F55005D0F6CFE9FFF7CFEAFFCA
:10559000EF500009D8A4EBD701C003F002C004F01B
:1055A000031E041E034A042A05500324016E0650FC
:1055B0000420026E120003C009F004C00AF001C00A
:1055C00007F002C008F019D009C0F6FF0AC0F7FFC3
:1055D000F86A07C0D9FF08C0DAFF070EF76403D0E6
:1055E0000800F55005D0F6CFE9FFF7CFEAFFEF50FE
:1055F000DF6E094A0A2A074A082A0506D8A00606C5
:105600000528E2E10628D8B41200DED701C007F071
:1056100002C008F015D00506D8A0060603C0F6FFA4
:1056200004C0F7FF034A042A07C0D9FF08C0DAFF05
:10563000074A082A0800F5CFDFFFDF50D8B40DD0A5
:1056400005500610D8B409D0E6D707C0D9FF08C066
:10565000DAFF000EDF6E074A082A0506D8A0060604
:105660000528F3E10628D8B41200EFD7000E086E23
:10567000070E086415D012000850BAEC29F025D0A6
:105680000850D7EC29F021D0E80E046E0850E7EC62
:105690002DF01BD0F40E046E0850E7EC2DF015D061
:1056A0000850010D500EF324D96E000EF420DA6E6E
:1056B000DF50000AD8B4E4D7010AD8B4DDD7030A12
:1056C000D8B4E2D7010AD8B4E5D7082AD1D706C0A2
:1056D0000EF007C00FF020EE70F00E50D9260F50DC
:1056E000DA2210EE72F00E50E1260F50E222E6CFE1
:1056F0000AF0E5CF0BF010EE6EF00E50E1260F50E1
:10570000E222E6CF0CF0E5CF0DF00A500C260B504C
:105710000D22FF0E0C24016EFF0E0D20026E10EE06
:1057200072F00E50E1260F50E222E6CF03F0E5CFF3
:1057300004F091EC2AF0DE50011804E1DE5002186A
:10574000D8B402D0010E1200000E1200000E096E35
:10575000000E0A6E000E0B6E000E0C6E0550061049
:1057600007100810D8B42AD0010E0D6E06D0D890BC
:1057700005360636073608360D2A08AEF8D7D89013
:1057800009360A360B360C360550015C06500258B5
:105790000750035808500458D8A009D00550015E9E
:1057A0000650025A0750035A0850045A0980D890EC
:1057B00008320732063205320D2EE1D709C001F05A
:1057C0000AC002F00BC003F00CC004F01200026E1D
:1057D00031D00250020D700EF324D96E000EF42069
:1057E000DA6EFA0EDE6E000EDD6E0250020D600EF5
:1057F000F324D96E000EF420DA6EE80EDE6E030E8E
:1058000017D00250020D700EF324D96E000EF42052
:10581000DA6EFA0EDE6E000EDD6E0250020D600EC4
:10582000F324D96E000EF420DA6EF40EDE6E010E53
:10583000DD6E07D00150020AD8B4CBD7010AD8B424
:10584000E0D70250010D500EF324D96E000EF42063
:10585000DA6E01C0DFFF120020C001F021C002F0AB
:10586000B2EC2AF001C022F002C023F0235004E180
:10587000150E225CD8A004D0000E236E140E226EEA
:10588000240E016E000E026E20C003F021C004F051
:1058900022C005F023C006F0DBEC2AF0240E2224FF
:1058A000016E000E2320026E150E036E080E046EAC
:1058B000000E066E020E056E06EC2BF0000E1C6E3E
:1058C000010E1D6E240E1E6E000E1F6E21EE77F06F
:1058D00001D812000500FA6EDE50FD6EDE50FE6E3D
:1058E000F850FF6EFA50120007C035F008C036F0CD
:1058F00020EE6EF03550D9263650DA22DECF01F098
:10590000DDCF02F0000E046E160E036EE6EC29F0F9
:1059100001503524D96E02503620DA6E10EE1FF099
:10592000150EDBCFE3FFE806FCE220EE6EF035500B
:10593000D9263650DA22DECF1DF0DDCF1EF0010E63
:105940001D24016E000E1E20026E20EE72F03550F6
:10595000D9263650DA22DECF03F0DDCF04F091EC09
:105960002AF020EE6EF03550D9263650DA2201C0EA
:10597000DEFF02C0DDFF20EE1FF000EE07F0150E87
:10598000DBCFEBFFE806FCE21200ACA2120058509D
:105990005910D8A42BD0000E016E010E026E21EE1C
:1059A0007DF001D80AD00500FA6EDE50FD6EDE50A3
:1059B000FE6EF850FF6EFA5012000009D8B416D0EF
:1059C000000E076E010E086E21EE7BF001D80AD0A2
:1059D0000500FA6EDE50FD6EDE50FE6EF850FF6E72
:1059E000FA50120007C058F008C059F0585059102A
:1059F000D8B412005B50010DF3505824D96EF45006
:105A00005920DA6EDF50376E37C0ADFF5B2A0A0EC1
:105A10003718D8A41200000E586E000E596E000EF2
:105A20005B6E000E076E010E086E21EE79F001D854
:105A300012000500FA6EDE50FD6EDE50FE6EF8506C
:105A4000FF6EFA5012009EAA1200AECF26F0000E92
:105A5000256E5A50010D800EF324D96E000EF420ED
:105A6000DA6E26C0DFFF0A0E2618D8A430D05A50AE
:105A7000D8B436D0FF0E206EFF0E216E5A50226E23
:105A8000236A2050222621502322800E2224D96E00
:105A9000000E2320DA6E0D0EDE18D8A421D0000EE1
:105AA0001C6E020E1D6E800E1E6E000E1F6E22EE0C
:105AB00077F001D80AD00500FA6EDE50FD6EDE5098
:105AC000FE6EF850FF6EFA501200010E08D05A2AEE
:105AD000150E5B6001D002D0010E01D0000E256EC4
:105AE0002550D8B41200000E5A6E800E016E000EC2
:105AF000026E000E046E000E036E000E066E160E91
:105B0000056EF9EC29F0120020EE70F00150D92654
:105B10000250DA22000EDE6E000EDD6E20EE6EF018
:105B20000150D9260250DA22000EDE6E000EDD6E24
:105B300020EE72F00150D9260250DA22050EDE6EF8
:105B4000000EDD6E20EE74F00150D9260250DA22EC
:105B5000000EDF6E20EE77F00150D9260250DA22D7
:105B6000900EDE6E530EDD6E20EE75F00150D926DC
:105B70000250DA22A40EDE6E5C0EDD6E20EE79F0AD
:105B80000150D9260250DA22E80EDE6E580EDD6E84
:105B900020EE7BF00150D9260250DA22B20EDE6EE2
:105BA000540EDD6E20EE7DF00150D9260250DA222F
:105BB0007C0EDE6E540EDD6E20EE7FF00150D92695
:105BC0000250DA22CE0EDE6E560EDD6E1200076E29
:105BD0000750020D700EF324D96E000EF420DA6E19
:105BE000DE50DE10D8B40CD00750020D700EF32436
:105BF000D96E000EF420DA6EDE06000EDD5A1200B9
:105C00000750020D700EF324D96E000EF420DA6EE8
:105C1000DE50DE10D8A412000750D7EC29F0075050
:105C2000020D600EF324D96E000EF420DA6EDE5001
:105C3000DE10D8B40CD00750020D600EF324D96EDC
:105C4000000EF420DA6EDE06000EDD5A1200075058
:105C5000020D600EF324D96E000EF420DA6EDE50D1
:105C6000DE10D8A412000750020D700EF324D96E76
:105C7000000EF420DA6EFA0EDE6E000EDD6E0450B9
:105C8000056E066A0750020D600EF324D96E000EF1
:105C9000F420DA6E05C0DEFF06C0DDFF0750BAEC67
:105CA00029F0120010C01AF011C01BF0000E186E7F
:105CB000000E196E1AC006F01BC007F020EE7FF030
:105CC0001A50D9261B50DA2201D80AD00500FA6EE4
:105CD000DE50FD6EDE50FE6EF850FF6EFA50120080
:105CE0000009D8B44BD020EE70F01A50D9261B50C2
:105CF000DA22DECF01F0DDCF02F0000E046E160EC8
:105D0000036EE6EC29F001501A24186E02501B2095
:105D1000196E18C001F019C002F012C003F013C0D0
:105D200004F014C005F015C006F0DBEC2AF020EEFC
:105D300070F01A50D9261B50DA22DECF16F0DDCFD4
:105D400017F0010E1624016E000E1720026E20EED1
:105D500072F01A50D9261B50DA22DECF03F0DDCFC5
:105D600004F091EC2AF020EE70F01A50D9261B5066
:105D7000DA2201C0DEFF02C0DDFF120020EE74F067
:105D80001A50D9261B50DA22010EDF6E12006FD096
:105D900026EC2AF00009D8B41BD0070E206E080E9E
:105DA000216E2CEC2CF0020E016E000EE7EC2BF0B5
:105DB000030E016E010EE7EC2BF0010E016E020ED8
:105DC000E7EC2BF0000E016E030EE7EC2BF047D052
:105DD000030E46D036EC2BF0000E026E010E016E63
:105DE0000FEC2AF0B0EC29F0000E016E020E026EEC
:105DF00022EE7DF001D80AD00500FA6EDE50FD6E6D
:105E0000DE50FE6EF850FF6EFA5012000009D8B452
:105E10002ED0020E25D0000E016E010EE7EC2BF005
:105E2000000E076E020E086E22EE79F001D80AD03D
:105E30000500FA6EDE50FD6EDE50FE6EF850FF6E0D
:105E4000FA50120020EE3AF0150EEBCFDBFFE80619
:105E5000FCE23A0E206E000E216E2CEC2CF0010EAE
:105E60005C6E05D0010E016E070EE7EC2BF05C5066
:105E7000000AD8B48DD7010AD8B4ACD7030AD8B475
:105E8000CAD7010AD8B4EED7F2D70EC012F00FC0AD
:105E900013F010C014F011C015F0060ED890123691
:105EA000133614361536E82EF9D7121E131E141E9B
:105EB000151E122A000E132214221522000E12247F
:105EC000016E6C0E1320026EDC0E1420036E020EA7
:105ED0001520046E0EC016F00FC017F010C018F099
:105EE00011C019F0060ED890163617361836193626
:105EF000E82EF9D716C005F017C006F018C007F055
:105F000019C008F0A6EC2BF001C01AF002C01BF07B
:105F10001B04D8A044D00EC012F00FC013F010C064
:105F200014F011C015F0040ED89012361336143642
:105F30001536E82EF9D7121E131E141E151E122A2E
:105F4000000E132214221522000E1224016E6C0E74
:105F50001320026EDC0E1420036E020E1520046E58
:105F60000EC016F00FC017F010C018F011C019F0D5
:105F7000040ED8901636173618361936E82EF9D78B
:105F800016C005F017C006F018C007F019C008F0D9
:105F9000A6EC2BF001C01AF002C01BF0AC841B046D
:105FA000D8B02CD01AC0AFFFAC98AB8E948E948C26
:105FB000AB88AC8A000E016E010E026E84EC2DF0EF
:105FC000000E016E020E026E84EC2DF0000E586E73
:105FD000000E596E000E5B6E000E5A6E800E016E42
:105FE000000E026E000E046E000E036E000E066EB2
:105FF000160E056EF9EC29F0010E1200000E1200CB
:020000040020DA
:08000000FFFFFFFFFFFFFFFF00
:020000040030CA
:0E00000030023F1EFF8181FF0FC00FA00F4096
:00000001FF
