:020000040000FA
:1008000004EF2BF0003F3B494F5465737420763062
:090810002E302E31000D0A00000B
:1055840045EC2DF0A3EC2DF01200000E956E000EEC
:105594008C6E12001CC010F01DC011F01EC012F061
:1055A4001FC013F0000E156E160E146ED0EC2EF004
:1055B400120001500302F3CF05F0F4CF06F00150BE
:1055C4000402F350062602500302F350062605C0D7
:1055D40001F006C002F0120001C007F002C008F09A
:1055E40008D007C0D9FF08C0DAFF03C0DFFF074AAD
:1055F400082A0506D8A006060528F3E10628D8B42B
:105604001200EFD701EE00F0810EEE6AE806FDE12C
:1056140000EE60F0970EEE6AE806FDE1546A536A04
:10562400526A516A506A000EF86E000167EF2EF05C
:10563400C7EC2AF0000E0E6EE10E0F6E000E106E17
:10564400000E116E45EC2FF00009D8A402D0000E14
:105654001200010E016E000E68EC2BF0010E120018
:1056640001C007F002C008F020EE6EF00750D92602
:105674000850DA2210EE70F00750E1260850E222BA
:10568400DE50E61804E1DE50E618D8B402D0010E6C
:105694001200000E120007C009F008C00AF020EE44
:1056A4006EF00950D9260A50DA22DECF01F0DDCFA0
:1056B40002F0000E046E160E036EDBEC2AF00150AD
:1056C4000924076E02500A20086E1200046E01506D
:1056D400D8B40DD004C002F0010E036E022A02D029
:1056E400D8900336022EFCD703508C12120004C04B
:1056F40002F0010E036E022A02D0D8900336022E65
:10570400FCD70350FF0A8C16120003500410D8B4BF
:1057140018D0010E056E04D0D89003360436052A3D
:1057240004AEFAD70350015C04500258D8A004D048
:105734000350015E0450025AD89004320332052EFD
:10574400F1D701C001F002C002F0120001C005F05F
:1057540002C006F002D0054A062A05C0F6FF06C0BC
:10576400F7FFF86A070EF76403D00800F55005D078
:10577400F6CFE9FFF7CFEAFFEF500009D8A4EBD743
:1057840001C003F002C004F0031E041E034A042AED
:1057940005500324016E06500420026E120003C05B
:1057A40009F004C00AF001C007F002C008F019D0E3
:1057B40009C0F6FF0AC0F7FFF86A07C0D9FF08C09E
:1057C400DAFF070EF76403D00800F55005D0F6CFD2
:1057D400E9FFF7CFEAFFEF50DF6E094A0A2A074ACA
:1057E400082A0506D8A006060528E2E10628D8B44A
:1057F4001200DED701C007F002C008F015D005067C
:10580400D8A0060603C0F6FF04C0F7FF034A042A23
:1058140007C0D9FF08C0DAFF074A082A0800F5CFF5
:10582400DFFFDF50D8B40DD005500610D8B409D02E
:10583400E6D707C0D9FF08C0DAFF000EDF6E074ABB
:10584400082A0506D8A006060528F3E10628D8B4D8
:105854001200EFD706C00EF007C00FF020EE70F074
:105864000E50D9260F50DA2210EE72F00E50E126B7
:105874000F50E222E6CF0AF0E5CF0BF010EE6EF007
:105884000E50E1260F50E222E6CF0CF0E5CF0DF0EA
:105894000A500C260B500D22FF0E0C24016EFF0E35
:1058A4000D20026E10EE72F00E50E1260F50E2222F
:1058B400E6CF03F0E5CF04F087EC2BF0DE500118BF
:1058C40004E1DE500218D8B402D0010E1200000E1A
:1058D4001200000E096E000E0A6E000E0B6E000E12
:1058E4000C6E0550061007100810D8B42AD0010E0B
:1058F4000D6E06D0D89005360636073608360D2AC2
:1059040008AEF8D7D89009360A360B360C3605504F
:10591400015C065002580750035808500458D8A098
:1059240009D00550015E0650025A0750035A085028
:10593400045A0980D89008320732063205320D2EF7
:10594400E1D709C001F00AC002F00BC003F00CC09B
:1059540004F0120020C001F021C002F0A8EC2BF0EA
:1059640001C022F002C023F0235004E1150E225C92
:10597400D8A004D0000E236E140E226E240E016EE5
:10598400000E026E20C003F021C004F022C005F016
:1059940023C006F0D1EC2BF0240E2224016E000E5D
:1059A4002320026E150E036E080E046E000E066EA2
:1059B400020E056EFCEC2BF0600E1C6E000E1D6ECC
:1059C400240E1E6E000E1F6E20EED7F001D81200BA
:1059D4000500FA6EDE50FD6EDE50FE6EF850FF6E6E
:1059E400FA50120007C035F008C036F020EE6EF011
:1059F4003550D9263650DA22DECF01F0DDCF02F061
:105A0400000E046E160E036EDBEC2AF001503524F2
:105A1400D96E02503620DA6E10EE1FF0150EDBCF71
:105A2400E3FFE806FCE220EE6EF03550D92636504E
:105A3400DA22DECF1DF0DDCF1EF0010E1D24016E33
:105A4400000E1E20026E20EE72F03550D92636501C
:105A5400DA22DECF03F0DDCF04F087EC2BF020EE6A
:105A64006EF03550D9263650DA2201C0DEFF02C06E
:105A7400DDFF20EE1FF000EE07F0150EDBCFEBFF8D
:105A8400E806FCE21200ACA2120050505110D8A457
:105A94002BD0600E016E000E026E20EEDDF001D8F8
:105AA4000AD00500FA6EDE50FD6EDE50FE6EF85030
:105AB400FF6EFA5012000009D8B416D0600E076EBB
:105AC400000E086E20EEDBF001D80AD00500FA6E55
:105AD400DE50FD6EDE50FE6EF850FF6EFA5012007E
:105AE40007C050F008C051F050505110D8B4120003
:105AF4005350010DF3505024D96EF4505120DA6EF6
:105B0400DF50376E37C0ADFF532A0A0E3718D8A4BA
:105B14001200000E506E000E516E000E536E600E99
:105B2400076E000E086E20EED9F001D812000500B1
:105B3400FA6EDE50FD6EDE50FE6EF850FF6EFA50C7
:105B440012009EAA1200AECF26F0000E256E52500F
:105B5400010DE10EF324D96E000EF420DA6E26C096
:105B6400DFFF0A0E2618D8A430D05250D8B436D04D
:105B7400FF0E206EFF0E216E5250226E236A2050BB
:105B8400222621502322E10E2224D96E000E232046
:105B9400DA6E0D0EDE18D8A421D0000E1C6E010E94
:105BA4001D6EE10E1E6E000E1F6E21EE77F001D801
:105BB4000AD00500FA6EDE50FD6EDE50FE6EF8501F
:105BC400FF6EFA501200010E08D0522A150E5360CF
:105BD40001D002D0010E01D0000E256E2550D8B49C
:105BE4001200000E526EE10E016E000E026E000EE7
:105BF400046E000E036E000E066E160E056EEEECBD
:105C04002AF0120020EE70F00150D9260250DA2258
:105C1400000EDE6E000EDD6E20EE6EF00150D92611
:105C24000250DA22000EDE6E000EDD6E20EE72F0FF
:105C34000150D9260250DA22050EDE6E000EDD6E0A
:105C440020EE74F00150D9260250DA22000EDF6EE5
:105C540020EE77F00150D9260250DA22980EDE6E3B
:105C6400550EDD6E20EE75F00150D9260250DA2271
:105C7400A00EDE6E5D0EDD6E20EE79F00150D926A9
:105C84000250DA22E80EDE6E590EDD6E20EE7BF055
:105C94000150D9260250DA229A0EDE6E560EDD6EBF
:105CA40020EE7DF00150D9260250DA22640EDE6E19
:105CB400560EDD6E20EE7FF00150D9260250DA2216
:105CC400580EDE6E580EDD6E12005AD01AEC2BF010
:105CD4000009D8B409D0010E546E070E206E080EC8
:105CE400216EACEC2CF04CD0030E43D0010E016EAF
:105CF400010E68EC2BF0C2EC2AF0000E016E010ECE
:105D0400026E21EE7DF001D80AD00500FA6EDE5055
:105D1400FD6EDE50FE6EF850FF6EFA501200000960
:105D2400D8B42ED0020E25D0000E016E010E68EC00
:105D34002BF0000E076E010E086E21EE79F001D8EB
:105D44000AD00500FA6EDE50FD6EDE50FE6EF8508D
:105D5400FF6EFA50120020EE3AF0150EEBCFDBFF87
:105D6400E806FCE23A0E206E000E216EACEC2CF03C
:105D7400010E546E05D0010E016E070E68EC2BF077
:105D84005450000AD8B4A2D7010AD8B4AFD7030A32
:105D9400D8B4CAD7010AD8B4EED7F2D710C01AF0D3
:105DA40011C01BF0000E186E000E196E1AC006F01A
:105DB4001BC007F020EE7FF01A50D9261B50DA22C0
:105DC40001D80AD00500FA6EDE50FD6EDE50FE6E7C
:105DD400F850FF6EFA5012000009D8B44BD020EEF0
:105DE40070F01A50D9261B50DA22DECF01F0DDCF35
:105DF40002F0000E046E160E036EDBEC2AF0015066
:105E04001A24186E02501B20196E18C001F019C014
:105E140002F012C003F013C004F014C005F015C062
:105E240006F0D1EC2BF020EE70F01A50D9261B505E
:105E3400DA22DECF16F0DDCF17F0010E1624016E44
:105E4400000E1720026E20EE72F01A50D9261B5055
:105E5400DA22DECF03F0DDCF04F087EC2BF020EE66
:105E640070F01A50D9261B50DA2201C0DEFF02C09E
:105E7400DDFF120020EE74F01A50D9261B50DA22EE
:105E8400010EDF6E12000EC012F00FC013F010C02E
:105E940014F011C015F0060ED890123613361436CD
:105EA4001536E82EF9D7121E131E141E151E122ABB
:105EB400000E132214221522000E1224016E6C0E01
:105EC4001320026EDC0E1420036E020E1520046EE5
:105ED4000EC016F00FC017F010C018F011C019F062
:105EE400060ED8901636173618361936E82EF9D716
:105EF40016C005F017C006F018C007F019C008F066
:105F04006BEC2CF001C01AF002C01BF01B04D8A0EB
:105F140044D00EC012F00FC013F010C014F011C022
:105F240015F0040ED8901236133614361536E82EB2
:105F3400F9D7121E131E141E151E122A000E132248
:105F440014221522000E1224016E6C0E1320026E10
:105F5400DC0E1420036E020E1520046E0EC016F023
:105F64000FC017F010C018F011C019F0040ED8902B
:105F74001636173618361936E82EF9D716C005F036
:105F840017C006F018C007F019C008F06BEC2CF02D
:105F940001C01AF002C01BF0AC841B04D8B02CD092
:105FA4001AC0AFFFAC98AB8E948E948CAB88AC8A3D
:105FB400600E016E000E026E04EC2EF0000E016EF7
:105FC400010E026E04EC2EF0000E506E000E516EA7
:105FD400000E536E000E526EE10E016E000E026E44
:105FE400000E046E000E036E000E066E160E056E95
:0C5FF400EEEC2AF0010E1200000E12006C
:020000040020DA
:08000000FFFFFFFFFFFFFFFF00
:020000040030CA
:0E00000030023F1EFF8181FF0FC00FA00F4096
:00000001FF
