:04000000F3EF08F022
:1008000000494F546573742076302E302E310074B9
:100810006573740D00000D0A00000EC012F00FC0C9
:1008200013F010C014F011C015F0060ED890123657
:10083000133614361536E82EF9D7121E131E141E61
:10084000151E122A000E132214221522000E122445
:10085000016E6C0E1320026EDC0E1420036E020E6D
:100860001520046E0EC016F00FC017F010C018F05F
:1008700011C019F0060ED8901636173618361936EC
:10088000E82EF9D716C005F017C006F018C007F01B
:1008900019C008F053EC07F001C01AF002C01BF0B9
:1008A0001B04D8A044D00EC012F00FC013F010C02B
:1008B00014F011C015F0040ED89012361336143609
:1008C0001536E82EF9D7121E131E141E151E122AF5
:1008D000000E132214221522000E1224016E6C0E3B
:1008E0001320026EDC0E1420036E020E1520046E1F
:1008F0000EC016F00FC017F010C018F011C019F09C
:10090000040ED8901636173618361936E82EF9D751
:1009100016C005F017C006F018C007F019C008F09F
:1009200053EC07F001C01AF002C01BF0AC841B04AA
:10093000D8B02CD01AC0AFFFAC98AB8E948E948CEC
:10094000AB88AC8A600E016E000E026EB9EC05F049
:10095000000E016E010E026EB9EC05F0000E3A6E4B
:10096000000E3B6E000E3D6E000E3C6E3F0E016EA3
:10097000000E026E000E046E000E036E000E066E78
:10098000160E056E0AEC09F0010E1200000E1200A0
:10099000010E256E0A0E266E040E3C6E3F0E016E91
:1009A000000E026E0F0E036E080E046EDBEC08F0F4
:1009B0002550D8B41200010E016E020E6EEC08F044
:1009C00026C028F0000E276E3C50010D3F0EF32488
:1009D000D96E000EF420DA6E28C0DFFF0A0E281848
:1009E000D8A435D03C50D8B43BD0FF0E206EFF0EBB
:1009F000216E3C50226E236A205022262150232251
:100A00003F0E2224D96E000E2320DA6E0D0EDE1862
:100A1000D8A426D0000E1C6E010E1D6E3F0E1E6E59
:100A2000000E1F6E21EE77F001D80AD00500FA6E95
:100A3000DE50FD6EDE50FE6EF850FF6EFA50120072
:100A4000010E016E030E6EEC08F0010E08D03D2A77
:100A5000150E3D6001D002D0010E01D0000E276EB0
:100A60002750D8B41200000E3D6E3F0E016E000EEE
:100A7000026E000E046E000E036E000E066E160E61
:100A8000056E0AEC09F0120010C01AF011C01BF03C
:100A9000000E186E000E196E1AC006F01BC007F08B
:100AA00020EE7FF01A50D9261B50DA2201D80AD046
:100AB0000500FA6EDE50FD6EDE50FE6EF850FF6EE1
:100AC000FA5012000009D8B44BD020EE70F01A5042
:100AD000D9261B50DA22DECF01F0DDCF02F0000E66
:100AE000046E160E036E20EC09F001501A24186EE5
:100AF00002501B20196E18C001F019C002F012C07C
:100B000003F013C004F014C005F015C006F003ECA8
:100B100008F020EE70F01A50D9261B50DA22DECFF2
:100B200016F0DDCF17F0010E1624016E000E17200F
:100B3000026E20EE72F01A50D9261B50DA22DECF58
:100B400003F0DDCF04F02EEC08F020EE70F01A5028
:100B5000D9261B50DA2201C0DEFF02C0DDFF1200E1
:100B600020EE74F01A50D9261B50DA22010EDF6EE7
:100B7000120020EE70F00150D9260250DA22000E49
:100B8000DE6E000EDD6E20EE6EF00150D9260250B2
:100B9000DA22000EDE6E000EDD6E20EE72F00150E5
:100BA000D9260250DA22050EDE6E000EDD6E20EE32
:100BB00074F00150D9260250DA22000EDF6E20EECA
:100BC00077F00150D9260250DA22660EDE6E120E40
:100BD000DD6E20EE75F00150D9260250DA22880E23
:100BE000DE6E0A0EDD6E20EE79F00150D92602503D
:100BF000DA22160EDE6E0E0EDD6E20EE7BF0015058
:100C0000D9260250DA221A0EDE6E110EDD6E20EEAB
:100C10007DF00150D9260250DA22500EDE6E110E00
:100C2000DD6E20EE7FF00150D9260250DA22280E28
:100C3000DE6E0F0EDD6E1200ACA212003A503B10B9
:100C4000D8A42BD0600E016E000E026E20EEDDF0F7
:100C500001D80AD00500FA6EDE50FD6EDE50FE6E41
:100C6000F850FF6EFA5012000009D8B416D0600E8A
:100C7000076E000E086E20EEDBF001D80AD00500EA
:100C8000FA6EDE50FD6EDE50FE6EF850FF6EFA50CA
:100C9000120007C03AF008C03BF03A503B10D8B4FD
:100CA00012003D50010DF3503A24D96EF4503B2010
:100CB000DA6EDF50236E23C0ADFF3D2A0A0E2318E3
:100CC000D8A41200000E3A6E000E3B6E000E3D6E70
:100CD000600E076E000E086E20EED9F001D81200EB
:100CE0000500FA6EDE50FD6EDE50FE6EF850FF6EAF
:100CF000FA5012003AD0C3EC08F00009D8B409D079
:100D0000010E3E6E010E206E080E216EC3EC06F041
:100D10002CD0030E1DD0010E016E010E6EEC08F0FA
:100D200047EC09F0000E016E010E026E21EE7DF01F
:100D300001D80AD00500FA6EDE50FD6EDE50FE6E60
:100D4000F850FF6EFA5012000009D8B40ED0020E0F
:100D50003E6E0BD0000E016E010E6EEC08F005D059
:100D6000010E016E070E6EEC08F03E50000AD8B47A
:100D7000C2D7010AD8B4CFD7030AD8B4EBD7010A37
:100D8000D8B4EED7F2D720C001F021C002F04FEC6A
:100D900008F001C022F002C023F0235004E1150E38
:100DA000225CD8A004D0000E236E140E226E240EF6
:100DB000016E000E026E20C003F021C004F022C0BC
:100DC00005F023C006F003EC08F0240E2224016E87
:100DD000000E2320026E160E036E080E046E000E27
:100DE000066E020E056ED3EC07F0600E1C6E000E50
:100DF0001D6E240E1E6E000E1F6E20EED7F001D861
:100E000012000500FA6EDE50FD6EDE50FE6EF850E8
:100E1000FF6EFA50120007C021F008C022F020EE49
:100E20006EF02150D9262250DA22DECF01F0DDCF3C
:100E300002F0000E046E160E036E20EC09F0015055
:100E40002124D96E02502220DA6E10EE0BF0150E1E
:100E5000DBCFE3FFE806FCE220EE6EF02150D9265E
:100E60002250DA22DECF09F0DDCF0AF0010E09248C
:100E7000016E000E0A20026E20EE72F02150D9267B
:100E80002250DA22DECF03F0DDCF04F02EEC08F0A2
:100E900020EE6EF02150D9262250DA2201C0DEFF6A
:100EA00002C0DDFF1200000E096E000E0A6E000E79
:100EB0000B6E000E0C6E0550061007100810D8B40B
:100EC0002AD0010E0D6E06D0D890053606360736AC
:100ED00008360D2A08AEF8D7D89009360A360B36F0
:100EE0000C360550015C0650025807500358085054
:100EF0000458D8A009D00550015E0650025A075088
:100F0000035A0850045A0980D89008320732063232
:100F100005320D2EE1D709C001F00AC002F00BC066
:100F200003F00CC004F0120006C00EF007C00FF072
:100F300020EE70F00E50D9260F50DA2210EE72F02B
:100F40000E50E1260F50E222E6CF0AF0E5CF0BF07B
:100F500010EE6EF00E50E1260F50E222E6CF0CF0BC
:100F6000E5CF0DF00A500C260B500D22FF0E0C247D
:100F7000016EFF0E0D20026E10EE72F00E50E12693
:100F80000F50E222E6CF03F0E5CF04F02EEC08F09C
:100F9000DE50011804E1DE500218D8B402D0010E70
:100FA0001200000E120001C007F002C008F015D0B8
:100FB0000506D8A0060603C0F6FF04C0F7FF034AE3
:100FC000042A07C0D9FF08C0DAFF074A082A080028
:100FD000F5CFDFFFDF50D8B40DD005500610D8B4E0
:100FE00009D0E6D707C0D9FF08C0DAFF000EDF6ED0
:100FF000074A082A0506D8A006060528F3E10628B0
:10100000D8B41200EFD703C009F004C00AF001C041
:1010100007F002C008F019D009C0F6FF0AC0F7FFB8
:10102000F86A07C0D9FF08C0DAFF070EF76403D0DB
:101030000800F55005D0F6CFE9FFF7CFEAFFEF50F3
:10104000DF6E094A0A2A074A082A0506D8A00606BA
:101050000528E2E10628D8B41200DED703500410B8
:10106000D8B418D0010E056E04D0D89003360436DB
:10107000052A04AEFAD70350015C04500258D8A0E8
:1010800004D00350015E0450025AD8900432033257
:10109000052EF1D701C001F002C002F0120001C01C
:1010A00005F002C006F002D0054A062A05C0F6FF88
:1010B00006C0F7FF0800F5500009D8A4F5D701C015
:1010C00003F002C004F0031E041E034A042A055064
:1010D0000324016E06500420026E1200046E0150BB
:1010E000D8B40DD004C002F0010E036E022A02D063
:1010F000D8900336022EFCD703508C12120004C085
:1011000002F0010E036E022A02D0D8900336022E9E
:10111000FCD70350FF0A8C16120007C009F008C064
:101120000AF020EE6EF00950D9260A50DA22DECFFE
:1011300001F0DDCF02F0000E046E160E036E20ECFF
:1011400009F001500924076E02500A20086E1200AF
:1011500001C007F002C008F020EE6EF00750D9265B
:101160000850DA2210EE70F00750E1260850E22213
:10117000DE50E61804E1DE50E618D8B402D0010EC5
:101180001200000E120042EC09F0000E0E6EE10E8D
:101190000F6E000E106E000E116E0DEC04F00009C3
:1011A000D8A402D0000E1200010E016E000E6EECEB
:1011B00008F0010E120001C005F002C006F004D0D4
:1011C000054A062A034A042A03C0F6FF04C0F7FFB3
:1011D00005C0D9FF06C0DAFF0800F5CFDFFFDF50FA
:1011E000D8B41200EDD701EE00F0810EEE6AE806E9
:1011F000FDE100EE60F0810EEE6AE806FDE100EE32
:101200003AF01B0EEE6AE806FDE1000EF86E0001F2
:101210007AEF06F001C007F002C008F008D007C05E
:10122000D9FF08C0DAFF03C0DFFF074A082A050616
:10123000D8A006060528F3E10628D8B41200EFD797
:1012400001500302F3CF05F0F4CF06F00150040281
:10125000F350062602500302F350062605C001F0A3
:1012600006C002F012001CC010F01DC011F01EC01C
:1012700012F01FC013F0000E156E160E146E44EC23
:1012800005F01200000E956E000E8C6E12001CEC24
:0812900006F0C8EC04F01200A6
:020000040020DA
:08000000FFFFFFFFFFFFFFFF00
:020000040030CA
:0E00000030023F1EFF8181FF0FC00FA00F4096
:00000001FF
